:100000000C942A000C943F000C943F000C943F0089
:100010000C943F000C943F000C943F000C943F0064
:100020000C943F000C943F000C943F000C943F0054
:100030000C943F000C943F000C943F000C943F0044
:100040000C943F000C943F000C943F000C943F0034
:100050000C943F0011241FBECFE5D4E0DEBFCDBF1E
:1000600010E0A0E6B0E0EAE6FBE002C005900D92E9
:10007000A436B107D9F70E94F0040C94B3050C9490
:1000800000008BB31BBA85B315BA0895FC019C011F
:1000900020583F4F09C011921192E817F907D9F77C
:1000A000FC012817390719F0CF014096F4CF0895C5
:1000B000EF92FF920F931F93CF93DF93082F192F87
:1000C0000E944100C02FD12FE12CF12C01E010E063
:1000D00024C021913191082E02C0220F331F0A94AF
:1000E000E2F7422B532B01968830910591F745BBDF
:1000F000C8010E2C02C0880F991F0A94E2F78BBB2F
:1001000084E68A95F1F70E9441008FEFE81AF80A19
:10011000609688E0E816F10431F0FE0180E090E09E
:1001200040E050E0D6CFDF91CF911F910F91FF902B
:10013000EF9008952F923F924F925F926F927F922D
:100140008F929F92AF92BF92CF92DF92EF92FF92E7
:100150000F931F93CF93DF9300D0CDB7DEB73C0151
:100160002B011A013A832983CB010E944600F30137
:100170001182108282E090E0938382831582148240
:1001800081E090E09783868311861086138612861D
:10019000F2019183808393838283958384830E9479
:1001A000400587709078992324F40197886F9F6F9A
:1001B0000196F101918380830E94400587709078B9
:1001C000992324F40197886F9F6F0196E981FA8142
:1001D0009183808383E090E0F8019183808381E0C4
:1001E00090E0F7019183808322E030E0F6013183D3
:1001F0002083F50111821082F40191838083EF89BD
:10020000F88D11821082E98DFA8D118210820F9083
:100210000F90DF91CF911F910F91FF90EF90DF90A2
:10022000CF90BF90AF909F908F907F906F905F9096
:100230004F903F902F90089580E884BF84BF8AB389
:100240008FEF8ABB94B384BB87B3807E87BB88B3B0
:100250008F6188BB0E9441000895CF93DF93CDB793
:10026000DEB7CA59D2400FB6F894DEBF0FBECDBF7D
:1002700083E090E09A838983FE01ED57FF4F80E091
:1002800091E0DF018C011D9201501040E1F768946C
:10029000EE24E1F8F12CF382E28201E010E0178312
:1002A0000683CE0103960E9446001C830B831E83A7
:1002B0000D8318870F83CD57DD4F19830883C358EB
:1002C000D2400E944100CF56DD4F19830883C159A7
:1002D000D240C157DD4F19821882CF58D240C35740
:1002E000DD4FF982E882CD58D240C557DD4F1982E3
:1002F0001882CB58D240C757DD4F19821882C9588F
:10030000D2400E9440050E9440050E94400587702F
:100310009078992324F40197886F9F6F0196C957AD
:10032000DD4F99838883C758D2400E94400587706B
:100330009078992324F40197886F9F6F0196CB578B
:10034000DD4F99838883C558D240CD56DD4F188242
:1003500019821A821B82C359D24044244394512CDF
:10036000642C752CC956DD4F1882C759D240C85627
:10037000DD4F1882C859D240242C352C10E0C756C6
:10038000DD4F1883C959D24020E0C656DD4F28837F
:10039000CA59D2400E9440058C010E944005C957AD
:1003A000DD4F48815981C758D240C357DD4F28815E
:1003B0003981CD58D2404217530709F086C0CB5738
:1003C000DD4F48815981C558D240C557DD4F28813E
:1003D0003981CB58D2404217530709F076C00770D5
:1003E0001078112334F401501109086F1F6F0F5F4B
:1003F0001F4F87709078992324F40197886F9F6F1F
:100400000196C756DD4FF880C959D240C656DD4F18
:10041000E880CA59D240A981BA811A161B0674F520
:10042000FE01ED57FF4FBD01660F771F660F771F67
:100430006E0F7F1F41E050E02081318182179307CA
:1004400061F4C22CD32C228133812017310711F49F
:10045000CF2CDE2C2C2D3D2D02C0222D332D6A01F8
:10046000C29EA001C39E500DD29E500D1124349601
:10047000E617F70709F74130510581F4C957DD4FF9
:1004800019830883C758D240CB57DD4F998388839F
:10049000C558D2401196BA83A98317C00E9440055F
:1004A00087709078992324F40197886F9F6F019645
:1004B0008C010E9440058770907899230CF0ABCF97
:1004C0000197886F9F6F0196A6CFB0991CC0C75740
:1004D000DD4F88819981C958D240019709F460C2E3
:1004E000CF56DD4F19821882C159D240C157DD4F16
:1004F00059824882CF58D240C757DD4F598248822F
:10050000C958D2404DC2B1991EC0C757DD4F88812E
:100510009981C958D240019709F437C2CF56DD4FAF
:1005200019821882C159D2408FEF9FEFC157DD4F1A
:1005300099838883CF58D240C757DD4F598248826C
:10054000C958D24022C2B2991CC0C757DD4F88811A
:100550009981C958D240892B09F41AC2CF56DD4F70
:1005600059824882C159D240C157DD4F1982188241
:10057000CF58D240C757DD4F19821882C958D24090
:1005800007C2B3992AC0C757DD4F88819981C958DE
:10059000D240892B11F18FEF9FEFCF56DD4F99831A
:1005A0008883C159D240C157DD4F19821882CF5874
:1005B000D240C757DD4F19821882C958D240CD5654
:1005C000DD4F088119812A813B81C359D240033311
:1005D000110521053105F0F5E6C1CD56DD4F8881C5
:1005E0009981AA81BB81C359D240C397A105B105A6
:1005F00008F4D9C1C157DD4F88819981CF58D240C5
:100600008130910599F4C557DD4F88819981CB5888
:10061000D240873091050CF0BDC10196C557DD4F22
:1006200099838883CB58D24072011AC00196A1F4F5
:10063000C557DD4F88819981CB58D24018161906CD
:100640006CF40197C557DD4F99838883CB58D2400E
:10065000720106C0720104C0720102C0E12CF12CCB
:10066000CF56DD4F88819981C159D24081309105A3
:1006700091F4C357DD4F88819981CD58D24087309E
:1006800091050CF08AC10196C357DD4F9983888389
:10069000CD58D24015C0019699F4C357DD4F8881DB
:1006A0009981CD58D2401816190644F40197C357C2
:1006B000DD4F99838883CD58D24002C0E12CF12CC4
:1006C00029813A8112161306ECF4FE01ED57FF4F13
:1006D000DE01AD57BE4FA901440F551F440F551FF2
:1006E0004E0F5F1F8081918111969C938E93828122
:1006F000938113969C938E93129734961496E417D5
:10070000F50781F7C9010197181619062CF5DE01C6
:10071000AD57BE4FE3E8F0E0EC0FFD1F3496220F1B
:10072000331F220F331F0F2EF3E8CF2ED12CF02DC5
:10073000CC0EDD1E2C0D3D1D8D919C91119791834A
:10074000808312968D919C91139793838283149644
:100750003496E217F30781F7C557DD4F88819981F9
:10076000CB58D240CD57DF4F99838883C358D040B0
:10077000C357DD4F88819981CD58D240CB57DF4F89
:1007800099838883C558D040CE0103960E944600C5
:1007900049815A81141615062CF5FE01ED57FF4FBD
:1007A000440F551F440F551F4E0F5F1FA081B1818D
:1007B000AA0FBB1FAA0FBB1FAA0FBB1F8281938169
:1007C000A80FB91FAA0FBB1F01E010E00C0F1D1FDF
:1007D000A00FB11F13965C924E9212973496E417B5
:1007E000F50721F7CB57DD4FE881F981C558D24095
:1007F000EE0FFF1FEE0FFF1FEE0FFF1FC957DD4F5C
:1008000088819981C758D240E80FF91FEE0FFF1F6A
:10081000EC0FFD1F5482438249815A81CA0101971E
:10082000181619060CF05AC081E090E0A0E0B0E084
:10083000CD56DD4F88839983AA83BB83C359D240A9
:1008400001C07201C557DD4F68817981CB58D24014
:10085000C357DD4FA881B981CD58D240E3E8F0E01D
:10086000EC0FFD1F3496440F551F440F551F0F2EDC
:10087000F3E8CF2ED12CF02DCC0EDD1E4C0D5D1DDE
:1008800021E030E0C956DD4FD880C759D240C85664
:10089000DD4FC880C859D240808191818617970763
:1008A00061F4062D172D828193818A179B0711F41D
:1008B0000D2D1C2D802F912F02C0862D972D890183
:1008C000089F9001099F300D189F300D1124349618
:1008D0004E175F0709F7232B69F40EC081E090E003
:1008E000A0E0B0E0CD56DD4F88839983AA83BB8317
:1008F000C359D240EF2839F5CE0187579D4F9F93BA
:100900008F9306969F938F93DE01AF56BD4F4D0197
:100910008E0105571D4F58019E0123573D4F690118
:100920000C977C010A58124028503109AE014957F2
:100930005D4FBE016D5F7F4F92500E949A000F90F5
:100940000F900F900F90CE0103960E945800C201A5
:10095000C957DD4F0880C758D24002C0880F991F81
:100960000A94E2F785BBC201CB57DD4F0880C5581A
:10097000D24002C0880F991F0A94E2F78BBB94E61D
:100980009A95F1F70E94410005CDB29BE7CDF9CDD4
:1009900086B323CEE12CF12C63CEE12CF12C90CE4A
:1009A000B199D1CDF2CFCD56DD4F088119812A8181
:1009B0003B81C359D2400F5F1F4F2F4F3F4FCD5642
:1009C000DD4F088319832A833B83C359D240498171
:1009D0005A81CA010197181619060CF432CFB3CF09
:1009E0000E941C010E942D018F929F92AF92BF9294
:1009F000CF92DF92EF92FF92CF93DF93EC01688169
:100A000079818A819B81611571058105910521F4A8
:100A100064E279ED8BE597E02DE133EF41E050E0C2
:100A20000E94500549015A019B01AC01A7EAB1E4BB
:100A30000E946F056B017C01ACEEB4EFA50194013F
:100A40000E947D05DC01CB018C0D9D1DAE1DBF1DDF
:100A5000B7FF03C00197A109B04888839983AA838F
:100A6000BB839F77DF91CF91FF90EF90DF90CF9086
:100A7000BF90AF909F908F9008950E94F4040895C6
:100A800080E690E00E94F4040895A0E0B0E0809336
:100A9000600090936100A0936200B093630008959A
:100AA000052E97FB1EF400940E94670557FD07D0A2
:100AB0000E94820507FC03D04EF40C946705509504
:100AC0004095309521953F4F4F4F5F4F089590953A
:100AD0008095709561957F4F8F4F9F4F08950E942D
:100AE000A405A59F900DB49F900DA49F800D911D0E
:100AF00011240895B7FF0C946F050E946F05821BA7
:100B0000930B0895A1E21A2EAA1BBB1BFD010DC079
:100B1000AA1FBB1FEE1FFF1FA217B307E407F507AD
:100B200020F0A21BB30BE40BF50B661F771F881F89
:100B3000991F1A9469F760957095809590959B011F
:100B4000AC01BD01CF010895A29FB001B39FC001C8
:100B5000A39F700D811D1124911DB29F700D811DE9
:0A0B60001124911D0895F894FFCFB1
:040B6A000100000086
:00000001FF
